:020000020000FC
:200000000000001C22021A2A2A1C0000000000000000001C22223E22222200000000000012
:200020000000003C22223C22223C0000000000000000001C22202020221C000000000000A8
:200040000000003C22222222223C0000000000000000003E20203E20203E00000000000044
:200060000000003E20203C2020200000000000000000001C22202E22221E00000000000078
:200080000000002222223E2222220000000000000000001C08080808081C000000000000F6
:2000A0000000001E04040404241800000000000000000022242830282422000000000000CA
:2000C0000000002020202020203E00000000000000000022362A2222222200000000000018
:2000E0000000002232322A2626220000000000000000001C22222222221C00000000000000
:200100000000003C22223C2020200000000000000000001C2222222A241A000000000000D9
:200120000000003C22223C2824220000000000000000001C22201C02221C000000000000DB
:200140000000003E0808080808080000000000000000002222222222221C00000000000049
:2001600000000022222222221408000000000000000000222222222A3622000000000000AF
:2001800000000022221408142222000000000000000000222214080808080000000000002F
:2001A0000000003E02040810203E0000000000000000001C10101010101C000000000000FD
:2001C000000000201010080404020000000000000000001C04040404041C00000000000081
:2001E000000000081C2A080808080000000000000000000008103E10080000000000000023
:200200000000000000000000000000000000000000000008080808080008000000000000AE
:200220000000001414000000000000000000000000000014143E143E1414000000000000B6
:20024000000000081E281C0A3C080000000000000000003234040810162600000000000028
:20026000000000182428102A241A000000000000000000181808100000000000000000005A
:200280000000000408101010080400000000000000000010080404040810000000000000DA
:2002A00000000000082A1C1C2A080000000000000000000008083E08080000000000000044
:2002C000000000000000181808100000000000000000000000003E00000000000000000098
:2002E00000000000000000001818000000000000000000020404081010200000000000007C
:200300000000001C22262A32221C000000000000000000040C140404041E00000000000091
:200320000000001C22020408103E0000000000000000001C22021C02221C00000000000087
:20034000000000040C14243E04040000000000000000003E20203C02221C00000000000015
:200360000000001C22203C22221C0000000000000000003E22020404080800000000000009
:200380000000001C22221C22221C0000000000000000001C22221E02221C000000000000C3
:2003A00000000000181800181800000000000000000000001818001808100000000000007D
:2003C0000000000408102010080400000000000000000000003E003E000000000000000049
:2003E000000000201008040810200000000000000000001C22020408000800000000000035
:00000001FF
